:020000040800F2
:1000000000280020E501000835020008350200083C
:100010003502000835020008350200080000000023
:100020000000000000000000000000003502000891
:100030003502000800000000350200083502000803
:1000400035020008350200083502000835020008B4
:1000500035020008350200083502000835020008A4
:100060003502000835020008350200083502000894
:100070003502000835020008350200083502000884
:100080003502000835020008350200083502000874
:100090003502000835020008350200083502000864
:1000A0003502000835020008350200083502000854
:1000B0003502000835020008350200083502000844
:1000C0003502000835020008350200083502000834
:1000D0003502000835020008350200083502000824
:1000E0003502000835020008000000003502000853
:1000F0003502000835020008350200083502000804
:1001000035020008350200083502000835020008F3
:1001100035020008350200083502000835020008E3
:1001200035020008350200083502000835020008D3
:1001300010B5054C237833B9044B13B10448AFF321
:1001400000800123237010BD00000020000000008B
:100150008002000808B5034B1BB103490348AFF305
:10016000008008BD0000000004000020800200089C
:1001700080B485B000AF184B7B60184B1B68174AE2
:1001800043F004031360164B1B6823F47003144AF6
:1001900003F5001313607A68138843F40053138047
:1001A0000023FB6002E0FB680133FB60FB6841F267
:1001B00087329342F7D97A6813886FF34D331380EF
:1001C0000023BB6002E0BB680133BB60BB6841F247
:1001D00087329342F7D9DEE70C080140181002403D
:1001E000040801400D488546AFF300800C480D49D6
:1001F0000D4A002302E0D458C4500433C4188C4282
:10020000F9D30A4A0A4C002301E013600432A242E7
:10021000FBD300F011F8FFF7ABFFFEE7002800204A
:100220000000002000000020A002000800000020C4
:100230001C000020FEE7000070B500250C4E0D4CA0
:10024000A41BA410A54209D100F01AF800250A4EFB
:100250000A4CA41BA410A54205D170BD56F8253048
:1002600098470135EEE756F8253098470135F2E713
:100270009802000898020008980200089C020008F2
:10028000F8B500BFF8BC08BC9E467047F8B500BF83
:08029000F8BC08BC9E46704753
:040298005501000804
:04029C003101000824
:04000005080001E509
:00000001FF
