:100000000C942A000C9434000C9434000C943400AA
:100010000C9434000C9434000C9434000C94340090
:100020000C9434000C9434000C9434000C94340080
:100030000C9434000C9434000C9434000C94340070
:100040000C9434000C9434000C9434000C94340060
:100050000C94340011241FBECFE5D8E0DEBFCDBF25
:100060000E943A000C946A000C94000081B3806FE7
:1000700081BB08950E94360025E01AC032B381E0AA
:1000800090E0022E02C0880F991F0A94E2F7932F86
:10009000982B92BB3FEF40E752E031504040504038
:1000A000E1F700C0000092B38095892382BB2F5FE7
:1000B000283020F382B3806182BB8FEF90E722E08B
:1000C000815090402040E1F700C0000082B38F7E55
:0800D00082BBD2CFF894FFCFF0
:00000001FF
