:100000000C942A000C9447000C9447000C94470071
:100010000C9447000C9447000C9447000C94470044
:100020000C9447000C9447000C9444010C946B0111
:100030000C9447000C9447000C9447000C94470024
:100040000C94E5000C9447000C9447000C94470076
:100050000C94470011241FBECFE5D8E0DEBFCDBF12
:1000600010E0A0E6B0E0E2EEF3E002C005900D92F1
:10007000A036B107D9F720E0A0E6B0E001C01D929C
:10008000A437B207E1F70E94CE010C94EF010C9463
:100090000000FC019093670080936600892BF1F1CA
:1000A000808181508730E0F583818032D8F581816D
:1000B000882311F08032C1F58481882321F08034B7
:1000C00011F0803C99F58581883090F517B896B18C
:1000D0008081892B86B996B18181892B86B98181EE
:1000E000803259F480B78F7180BF20B7958130E29C
:1000F000939FC0011124822B80BF97B18281892BED
:1001000087B997B18381892B87B997B18481892B6E
:1001100087B986B1806886B980E0089581E0089546
:1001200081E0089581E0089581E0089581E00895D7
:1001300081E00895E0916600F0916700818180324E
:1001400021F486B186B1806286B986B1806486B9B1
:1001500080E00895009749F1349BFECFE09166005E
:10016000F0916700228121110EC024B130E0FC0122
:100170003183208345B150E0542F4427242B352B65
:10018000318320830DC044B1429546954695437016
:1001900025B130E0322F2227242BFC01318320832C
:1001A00086B1806186B980E0089581E00895009766
:1001B00051F0909369008093680086B1886086B999
:1001C000789480E0089581E008951F920F920FB611
:1001D0000F9211242F933F934F935F936F937F93CD
:1001E0008F939F93AF93BF93EF93FF93E09168003A
:1001F000F0916900309709F00995FF91EF91BF9157
:10020000AF919F918F917F916F915F914F913F91AE
:100210002F910F900FBE0F901F901895DC01FB01DE
:100220008281843079F481E090E0008002C0880F00
:10023000991F0A94E2F711969C911197892B1196B8
:100240008C93089521E030E0008002C0220F331F1C
:100250000A94E2F7209511968C9111972823119614
:100260002C9311978281823071F481E090E00080BC
:1002700002C0880F991F0A94E2F712969C91129778
:10028000892B12968C9308951F920F920FB60F929E
:1002900011242F933F934F935F936F937F938F938B
:1002A0009F93AF93BF93EF93FF93E0916A00F09118
:1002B0006B000995FF91EF91BF91AF919F918F9145
:1002C0007F916F915F914F913F912F910F900FBE52
:1002D0000F901F9018951F920F920FB60F92112436
:1002E0002F933F934F935F936F937F938F939F933E
:1002F000AF93BF93EF93FF93809160009091610063
:10030000A0916200B09163000196A11DB11D809380
:10031000600090936100A0936200B0936300E0914D
:100320006C00F0916D000995FF91EF91BF91AF9135
:100330009F918F917F916F915F914F913F912F91FD
:100340000F900FBE0F901F901895CF93DF9300D0A2
:100350001F92CDB7DEB781E08B831A821982BE016E
:100360006F5F7F4F89E390E00E940E018FEF84BBA7
:1003700081BB0F900F900F90DF91CF910895EEE623
:10038000F0E087E0808380E281831582128213820D
:1003900080EC8483CF010E94490008950E94A5014A
:1003A0000E94BF0183EE91E00E94D7000E949A0054
:1003B000FFCFFC0120813181369527953695279511
:1003C00031832083089584E690E00E94AA0084E6A9
:1003D00090E00E94D9018091640082BB0895F89456
:0203E000FFCF4D
:00000001FF
