:100000000C942A000C9447000C9447000C94470071
:100010000C9447000C9447000C9447000C94470044
:100020000C9447000C9447000C9405010C942C018F
:100030000C9447000C9447000C9447000C94470024
:100040000C9447000C9447000C9447000C94470014
:100050000C94470011241FBECFE5D8E0DEBFCDBF12
:1000600010E0A0E6B0E0EEE6F3E002C005900D92ED
:10007000A036B107D9F720E0A0E6B0E001C01D929C
:10008000A137B207E1F70E94A9010C94B5010C94C5
:100090000000DC01FB018281843079F481E090E092
:1000A000008002C0880F991F0A94E2F711969C9174
:1000B0001197892B11968C93089521E030E00080F0
:1000C00002C0220F331F0A94E2F7209511968C91FB
:1000D0001197282311962C9311978281823071F405
:1000E00081E090E0008002C0880F991F0A94E2F737
:1000F00012969C911297892B12968C93089521E069
:1001000030E002C0220F331F6A95E2F7FC01328112
:10011000232722830895CF93DF9300D01F92CDB77A
:10012000DEB783E090E09A83898384E08B83BE010D
:100130006F5F7F4F86E390E00E9449000F900F9021
:100140000F90DF91CF910895CF93DF93EC01892B2E
:1001500009F43FC08881883008F03DC08981882338
:1001600031F0803421F0883011F08834B1F58A8183
:10017000882331F0803121F0803211F0803379F51D
:100180008B81823070F58C81882311F0823059F593
:1001900013BE93B78981892B83BF93B78A81892B3B
:1001A00083BF89B78C7F89BF99B78C81892B89BF21
:1001B00099B78B81892B89BF8A8181110E948B001D
:1001C0008C81823019F08B81813079F4789480E0D1
:1001D0000DC081E00BC081E009C081E007C081E073
:1001E00005C081E003C081E001C080E023B79881B1
:1001F000922B93BFDF91CF9108958CBF80E008953B
:10020000909369008093680008951F920F920FB633
:100210000F9211242F933F934F935F936F937F938C
:100220008F939F93AF93BF93EF93FF93E0916800F9
:10023000F09169000995FF91EF91BF91AF919F9166
:100240008F917F916F915F914F913F912F910F907F
:100250000FBE0F901F9018951F920F920FB60F921E
:1002600011242F933F934F935F936F937F938F93BB
:100270009F93AF93BF93EF93FF9380916000909112
:100280006100A0916200B09163000196A11DB11DB3
:100290008093600090936100A0936200B09363002C
:1002A000E0916A00F0916B000995FF91EF91BF9189
:1002B000AF919F918F917F916F915F914F913F91FE
:1002C0002F910F900FBE0F901F9018958091640092
:1002D00090916500A0916600B0916700CE97A1054E
:1002E000B10581F48BB38F5F8BBB63E086E390E055
:1002F0000E947F00109264001092650010926600C8
:10030000109267008091640090916500A091660052
:10031000B09167000196A11DB11D80936400909378
:100320006500A0936600B093670008958FEF8ABBC5
:1003300088E087BB0895ECE6F0E083E0808388E006
:1003400081831282138282E08483CF010E94A40001
:1003500008950E9496018DEF0E94FD000E949B016E
:0E03600086E691E00E940001FFCFF894FFCFE7
:00000001FF
