:100000000C942A000C9447000C9447000C94470071
:100010000C9447000C9447000C9447000C94470044
:100020000C9447000C9447000C942B040C9452043D
:100030000C9447000C9447000C9447000C94470024
:100040000C94E5000C9447000C9447000C94470076
:100050000C94470011241FBECFE5D8E0DEBFCDBF12
:1000600010E0A0E6B0E0E8EDFDE002C005900D92E2
:10007000AE36B107D9F720E0AEE6B0E001C01D9280
:10008000A039B207E1F70E94C6040C94EA060C946A
:100090000000FC019093790080937800892BF1F1A6
:1000A000808181508730E0F583818032D8F581816D
:1000B000882311F08032C1F58481882321F08034B7
:1000C00011F0803C99F58581883090F517B896B18C
:1000D0008081892B86B996B18181892B86B98181EE
:1000E000803259F480B78F7180BF20B7958130E29C
:1000F000939FC0011124822B80BF97B18281892BED
:1001000087B997B18381892B87B997B18481892B6E
:1001100087B986B1806886B980E0089581E0089546
:1001200081E0089581E0089581E0089581E00895D7
:1001300081E00895E0917800F0917900818180322A
:1001400021F486B186B1806286B986B1806486B9B1
:1001500080E00895009749F1349BFECFE09178004C
:10016000F0917900228121110EC024B130E0FC0110
:100170003183208345B150E0542F4427242B352B65
:10018000318320830DC044B1429546954695437016
:1001900025B130E0322F2227242BFC01318320832C
:1001A00086B1806186B980E0089581E00895009766
:1001B00051F090937B0080937A0086B1886086B975
:1001C000789480E0089581E008951F920F920FB611
:1001D0000F9211242F933F934F935F936F937F93CD
:1001E0008F939F93AF93BF93EF93FF93E0917A0028
:1001F000F0917B00309709F00995FF91EF91BF9145
:10020000AF919F918F917F916F915F914F913F91AE
:100210002F910F900FBE0F901F901895DC01FB01DE
:100220008281843079F481E090E0008002C0880F00
:10023000991F0A94E2F711969C911197892B1196B8
:100240008C93089521E030E0008002C0220F331F1C
:100250000A94E2F7209511968C9111972823119614
:100260002C9311978281823071F481E090E00080BC
:1002700002C0880F991F0A94E2F712969C91129778
:10028000892B12968C930895413061F421E030E07F
:1002900002C0220F331F6A95E2F7FC013281232B43
:1002A0002283089521E030E002C0220F331F6A95B7
:1002B000E2F72095FC013281232322830895FC017B
:1002C000628308958F929F92AF92BF92CF92DF92F6
:1002D000EF92FF92FC01862F461780F1483070F5AF
:1002E00050E0461B51094F5F5F4FC12CD12C760166
:1002F000C3944601570104C0880C991CAA1CBB1C5E
:100300004A95D2F7B501A40141505109610971091B
:10031000082E04C0440F551F661F771F0A94D2F79A
:1003200030E002C0220F331F8A95E2F7942F922308
:10033000228140954223242F292B2283FF90EF9086
:10034000DF90CF90BF90AF909F908F900895CF9304
:10035000DF9300D0CDB7DEB7AB01BC0119820BC073
:100360001A8203C08A818F5F8A838A818F3FD1F787
:1003700089818F5F8983898190E0A0E0B0E0841754
:100380009507A607B70760F30F900F90DF91CF9105
:1003900008958F929F92AF92BF92CF92DF92EF9289
:1003A000FF920F931F934B015C0180E017C0750112
:1003B0006401082E04C0F694E794D794C7940A9475
:1003C000D2F7C0FE0AC0FA01808391E0980FF901CC
:1003D00090838E5FF801808303C08F5F803238F393
:1003E0001F910F91FF90EF90DF90CF90BF90AF9053
:1003F0009F908F900895CF92DF92EF92FF920F938C
:100400001F93CF93DF93EC016D8170E080E090E06B
:100410000FE610E020E730E041E750E00E94C9011C
:100420000CE710E08091710090E0F80191838083E7
:100430006894FF24F2F8F282B8018A819B810E94BD
:100440000E018091700090E0F80191838083F28228
:10045000B8018A819B810E940E0180916F0090E01B
:10046000F80191838083F282B8018A819B810E9486
:100470000E018E818130A1F40FC0ECE7F0E0812FF6
:1004800090E09183808384E08283BF018881998199
:100490000E940E011F5F01C010E0183070F32AC0E7
:1004A000CC80D12CE12CF12C10E022C081E090E036
:1004B000012E02C0880F991F0A94E2F7092E000C42
:1004C000AA0BBB0B8C219D21AE21BF21892B8A2B2E
:1004D0008B2B69F0ECE7F0E0812F90E09183808333
:1004E00084E08283BF01888199810E940E011F5F91
:1004F0001830E0F240E060916F008A819B810E9499
:10050000440140E0609171008A819B810E94440116
:1005100040E0609170008A819B810E944401DF91DC
:10052000CF911F910F91FF90EF90DF90CF900895A2
:10053000CF93DF93EC0141E060916F008A819B8152
:100540000E94440162E370E080E090E00E94A70115
:1005500040E060916F008A819B810E944401DF919D
:10056000CF910895FF920F931F93CF93DF93EC01E8
:10057000F62E6D8170E080E090E00FE610E020E75D
:1005800030E041E750E00E94C9018E81813031F4B2
:100590006F2D888199810E945F012FC08C81803FDF
:1005A00011F414E001C010E003E0010F2F2D22959B
:1005B0002F70402F612F888199810E94620140E055
:1005C000609171008A819B810E94440140E06091AA
:1005D00070008A819B810E94440161E070E080E0AC
:1005E00090E00E94A701CE010E9498022F2D402F7B
:1005F000612F888199810E94620140E060917100C1
:100600008A819B810E94440140E0609170008A8150
:100610009B810E94440161E070E080E090E00E94D4
:10062000A701CE010E949802DF91CF911F910F91F7
:10063000FF90089561E00E94B2020895CF93DF9386
:10064000EC0164E170E080E090E00E94A701CE013F
:100650000E94FB016FE070E080E090E00E94A70143
:100660008E81811109C062E0CE010E94B20268E26F
:10067000CE010E94B20204C068E3CE010E94B20221
:10068000CE010E941A0366E0CE010E94B20260E829
:10069000CE010E94B2026FE0CE010E94B202DF9151
:1006A000CF910895FF920F931F93CF93DF93EC01A7
:1006B000F62E6D8170E080E090E00FE610E020E71C
:1006C00030E041E750E00E94C90180916E00803126
:1006D00029F460ECCE010E94B2020DC0803259F4C0
:1006E000CE010E941A0310926E0064E170E080E077
:1006F00090E00E94A7018E818130E9F46F2D8881FE
:1007000099810E945F0141E0609171008A819B8123
:100710000E94440140E0609170008A819B810E94A8
:10072000440161E070E080E090E00E94A701CE010A
:100730000E94980246C08C81803F11F414E001C0F1
:1007400010E003E0010F2F2D22952F70402F612F15
:10075000888199810E94620141E0609171008A81E3
:100760009B810E94440140E0609170008A819B81DE
:100770000E94440161E070E080E090E00E94A701E7
:10078000CE010E9498022F2D402F612F88819981E0
:100790000E94620141E0609171008A819B810E9408
:1007A000440140E0609170008A819B810E94440175
:1007B00061E070E080E090E00E94A701CE010E941D
:1007C000980280916E008F5F80936E0062E070E00F
:1007D00080E090E00E94A701DF91CF911F910F91DF
:1007E000FF9008950F931F93CF93DF938C01EB013C
:1007F00004C02196C8010E94520368816111F9CF9B
:10080000DF91CF911F910F9108950F931F93CF9375
:10081000DF93CDB7DEB727970FB6F894DEBF0FBED4
:10082000CDBF8C01DB01CA014AE0BE016F5F7F4F83
:100830000E94B506BE016F5F7F4FC8010E94F203A0
:1008400027960FB6F894DEBF0FBECDBFDF91CF91D4
:100850001F910F9108951F920F920FB60F921124BE
:100860002F933F934F935F936F937F938F939F93B8
:10087000AF93BF93EF93FF93E0917F00F0918000DF
:100880000995FF91EF91BF91AF919F918F917F91CA
:100890006F915F914F913F912F910F900FBE0F90ED
:1008A0001F9018951F920F920FB60F9211242F933D
:1008B0003F934F935F936F937F938F939F93AF93E8
:1008C000BF93EF93FF938091720090917300A0917A
:1008D0007400B09175000196A11DB11D8093720046
:1008E00090937300A0937400B0937500E091810021
:1008F000F09182000995FF91EF91BF91AF919F9187
:100900008F917F916F915F914F913F912F910F90B8
:100910000FBE0F901F901895CF93DF9300D01F92BA
:10092000CDB7DEB781E08B831A821982BE016F5F7B
:100930007F4F89E390E00E940E018FEF84BB81BB63
:100940000F900F900F90DF91CF910895EAE8F0E0BB
:1009500087E0808380E2818315821282138280E4A3
:100960008483CF010E9449000895E3E8F0E08EE01F
:10097000858380EF848386E390E0938382839183F1
:1009800080831682CF010E941E0308950E948C046A
:100990000E94A6040E94B50485EF94E00E94D7004F
:1009A0000E949A00FFCFCF93DF93EC016881798199
:1009B00080E090E00E94BA052AE038E240EA5BE37A
:1009C0000E94480620E030E040EA50E40E94190509
:1009D00020E030E048EC52E40E9448060E948B057B
:1009E00079836883DF91CF91089586E790E00E9434
:1009F000AA00909176008091770092BB85BB86E734
:100A000090E00E94D30460E670E083E890E00E94EA
:100A1000F203409176005091770060E070E083E847
:100A200090E00E94050465E283E890E00E94520392
:100A300008950E942D050C940E060E94070658F09A
:100A40000E94000640F029F45F3F29F00C94F7055E
:100A500051110C9442060C94FD050E941F0668F388
:100A60009923B1F3552391F3951B550BBB27AA2767
:100A700062177307840738F09F5F5F4F220F331FA1
:100A8000441FAA1FA9F335D00E2E3AF0E0E832D069
:100A900091505040E695001CCAF72BD0FE2F29D06C
:100AA000660F771F881FBB1F261737074807AB073E
:100AB000B0E809F0BB0B802DBF01FF2793585F4FB3
:100AC0003AF09E3F510578F00C94F7050C944206DD
:100AD0005F3FE4F3983ED4F3869577956795B79595
:100AE000F7959F5FC9F7880F911D9695879597F9A0
:100AF0000895E1E0660F771F881FBB1F6217730719
:100B00008407BA0720F0621B730B840BBA0BEE1F2D
:100B100088F7E09508950E94270688F09F5798F07F
:100B2000B92F9927B751B0F0E1F0660F771F881FF2
:100B3000991F1AF0BA95C9F714C0B13091F00E940C
:100B40004106B1E008950C944106672F782F88275D
:100B5000B85F39F0B93FCCF3869577956795B39533
:100B6000D9F73EF490958095709561957F4F8F4FA2
:100B70009F4F0895E89409C097FB3EF490958095A7
:100B8000709561957F4F8F4F9F4F9923A9F0F92F53
:100B900096E9BB279395F695879577956795B795D1
:100BA000F111F8CFFAF4BB0F11F460FF1BC06F5FB7
:100BB0007F4F8F4F9F4F16C0882311F096E911C0C9
:100BC000772321F09EE8872F762F05C0662371F0EA
:100BD00096E8862F70E060E02AF09A95660F771FFE
:100BE000881FDAF7880F9695879597F9089597F9F2
:100BF0009F6780E870E060E008959FEF80EC0895C3
:100C000000240A94161617061806090608950024EB
:100C10000A9412161306140605060895092E039465
:100C2000000C11F4882352F0BB0F40F4BF2B11F4D9
:100C300060FF04C06F5F7F4F8F4F9F4F089557FD38
:100C40009058440F551F59F05F3F71F04795880F3A
:100C500097FB991F61F09F3F79F0879508951216D1
:100C600013061406551FF2CF4695F1DF08C016167D
:100C700017061806991FF1CF86957105610508942E
:100C80000895E894BB2766277727CB0197F9089545
:100C90000E945B060C940E060E94000638F00E942B
:100CA000070620F0952311F00C94F7050C94FD0530
:100CB00011240C9442060E941F0670F3959FC1F305
:100CC000950F50E0551F629FF001729FBB27F00DFA
:100CD000B11D639FAA27F00DB11DAA1F649F66274F
:100CE000B00DA11D661F829F2227B00DA11D621F9E
:100CF000739FB00DA11D621F839FA00D611D221F58
:100D0000749F3327A00D611D231F849F600D211D3B
:100D1000822F762F6A2F11249F5750409AF0F1F0BE
:100D200088234AF0EE0FFF1FBB1F661F771F881F27
:100D300091505040A9F79E3F510580F00C94F70563
:100D40000C9442065F3FE4F3983ED4F38695779582
:100D50006795B795F795E7959F5FC1F7FE2B880FCD
:100D6000911D9695879597F90895BB274A3031F4E0
:100D7000992322F4BDE2909581959F4F0C94C10672
:100D8000BB27FB015527AA27880F991FAA1FA41765
:100D900010F0A41B83955051B9F7A05DAA3308F059
:100DA000A95DA193009779F7B111B1931192CB018D
:100DB0000C94DA06DC01FC01672F71917723E1F7CF
:100DC000329704C07C916D9370836291AE17BF0718
:080DD000C8F30895F894FFCF69
:0E0DD80050657263656E74616765203A0000B5
:00000001FF
