:100000000C942A000C9447000C9447000C94470071
:100010000C9447000C9447000C9447000C94470044
:100020000C9447000C9447000C942B040C9452043D
:100030000C9447000C9447000C9447000C94470024
:100040000C94E5000C9447000C9447000C94470076
:100050000C94470011241FBECFE5D8E0DEBFCDBF12
:1000600010E0A0E6B0E0E0E5FAE002C005900D92F5
:10007000A036B107D9F720E0A0E6B0E001C01D929C
:10008000A238B207E1F70E94C6040C9426050C942E
:100090000000FC0190936B0080936A00892BF1F1C2
:1000A000808181508730E0F583818032D8F581816D
:1000B000882311F08032C1F58481882321F08034B7
:1000C00011F0803C99F58581883090F517B896B18C
:1000D0008081892B86B996B18181892B86B98181EE
:1000E000803259F480B78F7180BF20B7958130E29C
:1000F000939FC0011124822B80BF97B18281892BED
:1001000087B997B18381892B87B997B18481892B6E
:1001100087B986B1806886B980E0089581E0089546
:1001200081E0089581E0089581E0089581E00895D7
:1001300081E00895E0916A00F0916B008181803246
:1001400021F486B186B1806286B986B1806486B9B1
:1001500080E00895009749F1349BFECFE0916A005A
:10016000F0916B00228121110EC024B130E0FC011E
:100170003183208345B150E0542F4427242B352B65
:10018000318320830DC044B1429546954695437016
:1001900025B130E0322F2227242BFC01318320832C
:1001A00086B1806186B980E0089581E00895009766
:1001B00051F090936D0080936C0086B1886086B991
:1001C000789480E0089581E008951F920F920FB611
:1001D0000F9211242F933F934F935F936F937F93CD
:1001E0008F939F93AF93BF93EF93FF93E0916C0036
:1001F000F0916D00309709F00995FF91EF91BF9153
:10020000AF919F918F917F916F915F914F913F91AE
:100210002F910F900FBE0F901F901895DC01FB01DE
:100220008281843079F481E090E0008002C0880F00
:10023000991F0A94E2F711969C911197892B1196B8
:100240008C93089521E030E0008002C0220F331F1C
:100250000A94E2F7209511968C9111972823119614
:100260002C9311978281823071F481E090E00080BC
:1002700002C0880F991F0A94E2F712969C91129778
:10028000892B12968C930895413061F421E030E07F
:1002900002C0220F331F6A95E2F7FC013281232B43
:1002A0002283089521E030E002C0220F331F6A95B7
:1002B000E2F72095FC013281232322830895FC017B
:1002C000628308958F929F92AF92BF92CF92DF92F6
:1002D000EF92FF92FC01862F461780F1483070F5AF
:1002E00050E0461B51094F5F5F4FC12CD12C760166
:1002F000C3944601570104C0880C991CAA1CBB1C5E
:100300004A95D2F7B501A40141505109610971091B
:10031000082E04C0440F551F661F771F0A94D2F79A
:1003200030E002C0220F331F8A95E2F7942F922308
:10033000228140954223242F292B2283FF90EF9086
:10034000DF90CF90BF90AF909F908F900895CF9304
:10035000DF9300D0CDB7DEB7AB01BC0119820BC073
:100360001A8203C08A818F5F8A838A818F3FD1F787
:1003700089818F5F8983898190E0A0E0B0E0841754
:100380009507A607B70760F30F900F90DF91CF9105
:1003900008958F929F92AF92BF92CF92DF92EF9289
:1003A000FF920F931F934B015C0180E017C0750112
:1003B0006401082E04C0F694E794D794C7940A9475
:1003C000D2F7C0FE0AC0FA01808391E0980FF901CC
:1003D00090838E5FF801808303C08F5F803238F393
:1003E0001F910F91FF90EF90DF90CF90BF90AF9053
:1003F0009F908F900895CF92DF92EF92FF920F938C
:100400001F93CF93DF93EC016D8170E080E090E06B
:1004100001E610E022E630E043E650E00E94C90128
:100420000EE610E08091630090E0F80191838083F4
:100430006894FF24F2F8F282B8018A819B810E94BD
:100440000E018091620090E0F80191838083F28236
:10045000B8018A819B810E940E018091610090E029
:10046000F80191838083F282B8018A819B810E9486
:100470000E018E818130A1F40FC0EEE6F0E0812FF5
:1004800090E09183808384E08283BF018881998199
:100490000E940E011F5F01C010E0183070F32AC0E7
:1004A000CC80D12CE12CF12C10E022C081E090E036
:1004B000012E02C0880F991F0A94E2F7092E000C42
:1004C000AA0BBB0B8C219D21AE21BF21892B8A2B2E
:1004D0008B2B69F0EEE6F0E0812F90E09183808332
:1004E00084E08283BF01888199810E940E011F5F91
:1004F0001830E0F240E0609161008A819B810E94A7
:10050000440140E0609163008A819B810E94440124
:1005100040E0609162008A819B810E944401DF91EA
:10052000CF911F910F91FF90EF90DF90CF900895A2
:10053000CF93DF93EC0141E0609161008A819B8160
:100540000E94440162E370E080E090E00E94A70115
:1005500040E0609161008A819B810E944401DF91AB
:10056000CF910895FF920F931F93CF93DF93EC01E8
:10057000F62E6D8170E080E090E001E610E022E66A
:1005800030E043E650E00E94C9018E81813031F4B1
:100590006F2D888199810E945F012FC08C81803FDF
:1005A00011F414E001C010E003E0010F2F2D22959B
:1005B0002F70402F612F888199810E94620140E055
:1005C000609163008A819B810E94440140E06091B8
:1005D00062008A819B810E94440161E070E080E0BA
:1005E00090E00E94A701CE010E9498022F2D402F7B
:1005F000612F888199810E94620140E060916300CF
:100600008A819B810E94440140E0609162008A815E
:100610009B810E94440161E070E080E090E00E94D4
:10062000A701CE010E949802DF91CF911F910F91F7
:10063000FF90089561E00E94B2020895CF93DF9386
:10064000EC0164E170E080E090E00E94A701CE013F
:100650000E94FB016FE070E080E090E00E94A70143
:100660008E81811109C062E0CE010E94B20268E26F
:10067000CE010E94B20204C068E3CE010E94B20221
:10068000CE010E941A0366E0CE010E94B20260E829
:10069000CE010E94B2026FE0CE010E94B202DF9151
:1006A000CF910895FF920F931F93CF93DF93EC01A7
:1006B000F62E6D8170E080E090E001E610E022E629
:1006C00030E043E650E00E94C90180916000803133
:1006D00029F460ECCE010E94B2020DC0803259F4C0
:1006E000CE010E941A031092600064E170E080E085
:1006F00090E00E94A7018E818130E9F46F2D8881FE
:1007000099810E945F0141E0609163008A819B8131
:100710000E94440140E0609162008A819B810E94B6
:10072000440161E070E080E090E00E94A701CE010A
:100730000E94980246C08C81803F11F414E001C0F1
:1007400010E003E0010F2F2D22952F70402F612F15
:10075000888199810E94620141E0609163008A81F1
:100760009B810E94440140E0609162008A819B81EC
:100770000E94440161E070E080E090E00E94A701E7
:10078000CE010E9498022F2D402F612F88819981E0
:100790000E94620141E0609163008A819B810E9416
:1007A000440140E0609162008A819B810E94440183
:1007B00061E070E080E090E00E94A701CE010E941D
:1007C0009802809160008F5F8093600062E070E02B
:1007D00080E090E00E94A701DF91CF911F910F91DF
:1007E000FF9008950F931F93CF93DF938C01EB013C
:1007F00004C02196C8010E94520368816111F9CF9B
:10080000DF91CF911F910F9108950F931F93CF9375
:10081000DF93CDB7DEB727970FB6F894DEBF0FBED4
:10082000CDBF8C01DB01CA014AE0BE016F5F7F4F83
:100830000E94F104BE016F5F7F4FC8010E94F20366
:1008400027960FB6F894DEBF0FBECDBFDF91CF91D4
:100850001F910F9108951F920F920FB60F921124BE
:100860002F933F934F935F936F937F938F939F93B8
:10087000AF93BF93EF93FF93E0917100F0917200FB
:100880000995FF91EF91BF91AF919F918F917F91CA
:100890006F915F914F913F912F910F900FBE0F90ED
:1008A0001F9018951F920F920FB60F9211242F933D
:1008B0003F934F935F936F937F938F939F93AF93E8
:1008C000BF93EF93FF938091640090916500A09196
:1008D0006600B09167000196A11DB11D8093640070
:1008E00090936500A0936600B0936700E091730059
:1008F000F09174000995FF91EF91BF91AF919F9195
:100900008F917F916F915F914F913F912F910F90B8
:100910000FBE0F901F901895CF93DF9300D01F92BA
:10092000CDB7DEB781E08B831A821982BE016F5F7B
:100930007F4F89E390E00E940E018FEF84BB81BB63
:100940000F900F900F90DF91CF910895ECE7F0E0BA
:1009500087E0808380E2818315821282138280EC9B
:100960008483CF010E9449000895E5E7F0E08EE01E
:10097000858380EF848386E390E0938382839183F1
:1009800080831682CF010E941E0308950E948C046A
:100990000E94A6040E94B5048DED94E00E94D70049
:1009A0000E949A00FFCFFC01208131813695279566
:1009B0003695279531832083089588E690E00E943C
:1009C000AA0088E690E00E94D3044091680050910C
:1009D000690042BB60E070E085E790E00E9405049A
:1009E0000895BB274A3031F4992322F4BDE2909553
:1009F00081959F4F0C94FD04BB27FB015527AA2727
:100A0000880F991FAA1FA41710F0A41B839550519B
:100A1000B9F7A05DAA3308F0A95DA193009779F713
:100A2000B111B1931192CB010C941605DC01FC01BC
:100A3000672F71917723E1F7329704C07C916D9312
:100A400070836291AE17BF07C8F30895F894FFCF83
:00000001FF
