S01200004C43445F4B65797061642E7372656382
S11300000C942A000C9447000C9447000C9447006D
S11300100C9447000C9447000C9447000C94470040
S11300200C9447000C9447000C9447000C94470030
S11300300C9447000C9447000C9447000C94470020
S11300400C9447000C9447000C9447000C94470010
S11300500C94470011241FBECFE5D8E0DEBFCDBF0E
S113006010E0A0E6B0E0E6E5F5E002C005900D92F0
S1130070A037B107D9F720E0A0E7B0E001C01D9296
S1130080A137B207E1F70E9463010C94A9020C9412
S1130090000081B3806F81BB81B3807F81BB8FEF10
S11300A082BB089560E070E03AC022B3FA0134964E
S11300B081E090E002C0880F991FEA95E2F7382F9B
S11300C03095232322BB20B330E0062E02C03595A1
S11300D027950A94E2F720FD15C080B390E0062E20
S11300E002C0959587950A94E2F780FFF6CF660FD4
S11300F0771F660F771F605A7F4FFB01E40FF51FD0
S11301008081089592B3892B82BB4F5F5F4F02C0F9
S113011040E050E04430510544F26F5F7F4F64305B
S11301207105B4F384E2089588B3877F88BB83EDB7
S113013090E30197F1F700C0000088B3886088BBA2
S113014008958AB31ABA88B3846088BB88B38D7F54
S113015088BB0E9494008AB38FEF8ABB88B38B7FDD
S113016088BB0895CF93C82F0E94A100CBBB88B34E
S1130170897F88BB0E949400CF91089581E00E94FA
S1130180B200089587E893E10197F1F700C00000F9
S113019087B38E6087BB88B3817F88BB8FEF8ABBB0
S11301A085EA9EE00197F1F700C000000E94BE00BE
S11301B088E30E94B20086E00E94B20080E80E94B8
S11301C0B2008FE00E94B2000895CF93C82F0E941E
S11301D0A100CBBB88B3826088BB88B38B7F88BB0C
S11301E080917000803121F480EC0E94B2000AC03A
S11301F0803241F40E94BE0083EC99E00197F1F74C
S113020000C000000E949400809170008F5F809372
S11302107000CF910895811107C0603128F480E8FF
S1130220860F0E94B2000895813031F4603120F4C9
S113023080EC860F0E94B20008950F931F93CF9312
S1130240DF938C01C0E0D0E018C021960F5F1F4FF0
S11302500E94E500C031D10529F460E081E00E94EC
S11302600B010BC0C032D10541F40E94BE0060E016
S113027080E00E940B01C0E0D0E0F8018081811190
S1130280E4CFDF91CF911F910F910895CF93DF9326
S1130290CDB7DEB727970FB6F894DEBF0FBECDBF3C
S11302A04AE0BE016F5F7F4F0E946C02CE0101964F
S11302B00E941D0127960FB6F894DEBF0FBECDBF76
S11302C0DF91CF910895CF93DF93CDB7DEB72E970B
S11302D00FB6F894DEBF0FBECDBF0E94C2000E94CD
S11302E0490087E0FE013196DF01282F1D922A95EF
S11302F0E9F73796DF011D928A95E9F70E94BE005F
S1130300C12CD12CE12CF12C00E00E945200182FBA
S11303108432D9F3813251F40E94BE0018861982C6
S1130320C12CD12CE12CF12C00E0EFCF80ED810F1A
S11303308A30E0F4812F0E94E50001110CC0E1E055
S1130340F0E0EC0FFD1FEE0DFF1D108397012F5FF2
S11303503F4F7901DACFE8E0F0E0EC0FFD1FEC0D40
S1130360FD1D1083C60101966C01CFCF1D3309F02A
S113037068C0812F0E94E5000B3249F018F40A325C
S113038091F0C3CF0D3209F10F3269F1BECFCE0126
S113039001960E944E028C01CE0108960E944E02E4
S11303A0800F911F2EC0CE0101960E944E028C0137
S11303B0CE0108960E944E02DC010A9FC0010B9FE9
S11303C0900D1A9F900D11241CC0CE0101960E941D
S11303D04E028C01CE0108960E944E029801281B01
S11303E0390BC9010EC0CE0101960E944E028C0148
S11303F0CE0108960E944E02BC01C8010E9426024A
S1130400CB010E9446013FE78AE196E031508040EB
S11304109040E1F700C000000E94BE0087E0FE01AA
S11304203196DF01282F1D922A95E9F73796DF01CF
S11304301D928A95E9F7C12CD12CE12CF12C00E016
S113044064CF812F0E94E500012F5FCF97FB072E19
S113045016F4009407D077FD09D00E943A0207FCF5
S113046005D03EF4909581959F4F089570956195C0
S11304707F4F0895AA1BBB1B51E107C0AA1FBB1FD6
S1130480A617B70710F0A61BB70B881F991F5A951C
S1130490A9F780959095BC01CD010895FC018827AA
S11304A09927E89421912032E9F3293010F02E3075
S11304B0C8F32B3241F02D3239F4689404C00E9401
S11304C07702820F911D219120532A30C0F31EF42C
S11304D0909581959F4F0895BB274A3031F4992315
S11304E022F4BDE2909581959F4F0C9480027AE0AE
S11304F0979F902D879F802D910D11240895BB27E0
S1130500FB015527AA27880F991FAA1FA41710F0CB
S1130510A41B83955051B9F7A05DAA3308F0A95DD7
S1130520A193009779F7B111B1931192CB010C9477
S11305309902DC01FC01672F71917723E1F732976F
S113054004C07C916D9370836291AE17BF07C8F3AA
S10905500895F894FFCFAA
S11305563738392F3435362A3132332D21303D2B75
S9030000FC
