:100000000C942A000C9447000C9447000C94470071
:100010000C9447000C9447000C9447000C94470044
:100020000C9447000C9447000C9447000C94470034
:100030000C9447000C9447000C9447000C94470024
:100040000C9447000C9447000C9447000C94470014
:100050000C94470011241FBECFE5D8E0DEBFCDBF12
:1000600010E0A0E6B0E0E2E4F3E002C005900D92FB
:10007000A036B107D9F720E0A0E6B0E001C01D929C
:10008000A736B207E1F70E9474010C949F010C940B
:100090000000DC01FB018281843079F481E090E092
:1000A000008002C0880F991F0A94E2F711969C9174
:1000B0001197892B11968C93089521E030E00080F0
:1000C00002C0220F331F0A94E2F7209511968C91FB
:1000D0001197282311962C9311978281823071F405
:1000E00081E090E0008002C0880F991F0A94E2F737
:1000F00012969C911297892B12968C9308954130F9
:1001000061F421E030E002C0220F331F6A95E2F76C
:10011000FC013281232B2283089521E030E002C0CC
:10012000220F331F6A95E2F72095FC0132812323C9
:10013000228308951F93CF93DF9300D01F92CDB7F2
:10014000DEB7FC0182818031C9F587E090E09A83B7
:10015000898314E01B83BE016F5F7F4F86E390E0CD
:100160000E94490086E090E09A83898381E08B8336
:10017000BE016F5F7F4F86E390E00E94490085E0FB
:1001800090E09A8389831B83BE016F5F7F4F86E374
:1001900090E00E94490084E090E09A8389831B8369
:1001A000BE016F5F7F4F86E390E00E94490041E00F
:1001B00064E086E390E00E947F0032C087E090E038
:1001C0009A83898311E01B83BE016F5F7F4F86E3B3
:1001D00090E00E94490086E090E09A83898384E061
:1001E0008B83BE016F5F7F4F86E390E00E944900E2
:1001F00085E090E09A8389831B83BE016F5F7F4F08
:1002000086E390E00E94490084E090E09A8389832D
:100210001B83BE016F5F7F4F86E390E00E94490021
:100220000F900F900F90DF91CF911F910895FC01D7
:10023000A081B1819C918281892B8C93A081B18115
:100240009C918481892B8C93A081B1819C91858123
:10025000892B8C938381982F9695969581F08B7F2F
:100260008383A081B18111968C91119711968C9303
:10027000A081B1819C918381892B8C9305C0A08141
:10028000B1819C91892B8C93A081B1818C918064E8
:100290008C93CF010E949A000895CF93DF93DC01E5
:1002A000ED91FC911197EB0188818283ED91FC9196
:1002B000119791819923D4F78281FB018083DF918B
:1002C000CF910895E0E6F0E080E1828384E08483CA
:1002D00081E0838316828DE290E091838083158292
:1002E000CF010E9417010895CF93DF931F92CDB7DE
:1002F000DEB70E9462018FEF8ABB10E02FE38DE032
:1003000093E0215080409040E1F700C0000040E0C1
:1003100064E086E390E00E947F001983BE016F5F76
:100320007F4F80E690E00E944D0141E064E086E36B
:1003300090E00E947F0089818BBB1F5FDFCFF89424
:02034000FFCFED
:00000001FF
