:100000000C942A000C9447000C9447000C94470071
:100010000C9447000C9447000C9447000C94470044
:100020000C9447000C9447000C9447000C94470034
:100030000C9447000C9447000C9447000C94470024
:100040000C9447000C9447000C9447000C94470014
:100050000C94470011241FBECFE5D8E0DEBFCDBF12
:1000600010E0A0E6B0E0ECE1F4E002C005900D92F3
:10007000A036B107D9F720E0A0E6B0E001C01D929C
:10008000A736B207E1F70E94C5010C940C020C944C
:100090000000DC01FB018281843079F481E090E092
:1000A000008002C0880F991F0A94E2F711969C9174
:1000B0001197892B11968C93089521E030E00080F0
:1000C00002C0220F331F0A94E2F7209511968C91FB
:1000D0001197282311962C9311978281823071F405
:1000E00081E090E0008002C0880F991F0A94E2F737
:1000F00012969C911297892B12968C9308954130F9
:1001000061F421E030E002C0220F331F6A95E2F76C
:10011000FC013281232B2283089521E030E002C0CC
:10012000220F331F6A95E2F72095FC0132812323C9
:10013000228308951F93CF93DF9300D01F92CDB7F2
:10014000DEB7FC0182818031C9F587E090E09A83B7
:10015000898314E01B83BE016F5F7F4F86E390E0CD
:100160000E94490086E090E09A83898381E08B8336
:10017000BE016F5F7F4F86E390E00E94490085E0FB
:1001800090E09A8389831B83BE016F5F7F4F86E374
:1001900090E00E94490084E090E09A8389831B8369
:1001A000BE016F5F7F4F86E390E00E94490041E00F
:1001B00064E086E390E00E947F0032C087E090E038
:1001C0009A83898311E01B83BE016F5F7F4F86E3B3
:1001D00090E00E94490086E090E09A83898384E061
:1001E0008B83BE016F5F7F4F86E390E00E944900E2
:1001F00085E090E09A8389831B83BE016F5F7F4F08
:1002000086E390E00E94490084E090E09A8389832D
:100210001B83BE016F5F7F4F86E390E00E94490021
:100220000F900F900F90DF91CF911F910895FC01D7
:10023000A081B1819C918281892B8C93A081B18115
:100240009C918481892B8C93A081B1819C91858123
:10025000892B8C938381982F9695969581F08B7F2F
:100260008383A081B18111968C91119711968C9303
:10027000A081B1819C918381892B8C9305C0A08141
:10028000B1819C91892B8C93A081B1818C918064E8
:100290008C93CF010E949A000895CF93DF93DC01E5
:1002A000ED91FC911197EB018881828316968C91D8
:1002B0001697811106C0ED91FC91119791819923B8
:1002C000D4F7DF91CF910895CF93DF9300D0CDB7CE
:1002D000DEB789836A8340E064E086E390E00E94B1
:1002E0007F00BE016F5F7F4F80E690E00E944D016E
:1002F000BE016E5F7F4F80E690E00E944D0141E0BD
:1003000064E086E390E00E947F000F900F90DF9101
:10031000CF910895E0E6F0E081E0838315828DE2DD
:1003200090E091838083148280E182831682CF01E2
:100330000E9417010895CF93DF9300D000D0CDB76E
:10034000DEB781E090E0A0E0B0E089839A83AB83E0
:10035000BC830BC089819A81AB81BC810196A11DB0
:10036000B11D89839A83AB83BC8389819A81AB81D8
:10037000BC818F309742A105B10560F30F900F90BB
:100380000F900F90DF91CF910895CF93DF9300D01E
:10039000CDB7DEB7198281E08A830E948A016FEFB0
:1003A00089E00E9464016FEF8AE00E94640167EFB8
:1003B0008BE00E94640161E08CE00E94640122C035
:1003C00040E064E086E390E00E947F00BE016E5F43
:1003D0007F4F80E690E00E944D01BE016F5F7F4F2E
:1003E00080E690E00E944D0141E064E086E390E009
:1003F0000E947F000E949B018A818F5F8A8389818E
:100400008F5F89838A818930D8F280E090E00F90F5
:0C0410000F90DF91CF910895F894FFCF7A
:00000001FF
