:100000000C942A000C9434000C9434000C943400AA
:100010000C9434000C9434000C9434000C94340090
:100020000C9434000C9434000C9434000C94340080
:100030000C9434000C9434000C9434000C94340070
:100040000C9434000C9434000C9434000C94340060
:100050000C94340011241FBECFE5D8E0DEBFCDBF25
:100060000E943A000C946D000C9400008AB38FEF4C
:100070008ABB08950E94360020E015C03BB381E0A2
:1000800090E0022E02C0880F991F0A94E2F7832B9A
:100090008BBB3FE788E391E0315080409040E1F72F
:1000A00000C000002F5F283048F337E02BB381E019
:1000B00090E0032E02C0880F991F0A94E2F7809502
:1000C00082238BBB2FE788E391E021508040904052
:0E00D000E1F700C000003150E9CFF894FFCFF7
:00000001FF
